:060000000A128A11502FC4
:100EA00083010A128A11D52F183083160313870085
:100EB0002630930080309400363083120313940060
:100EC0000800831603139115652F831203138C1DDD
:100ED0006A2F6B2F652F8C1113080800F200831204
:100EE000031309147208860009150D30F100FB3058
:100EF000F000F00B792FF10B792F7E2F8312031363
:100F000009110800F2008312031309107208860009
:100F100009150D30F100FB30F000F00B8D2FF10BB7
:100F20008D2F922F83120313091108000030F00057
:100F30000030F10003307102E83003197002031C25
:100F4000A22FA32FA42FB32F0130F0070318F10A0B
:100F50000030F10703307102E83003197002031CFE
:100F6000B22FB32FA42F08000630831603139F005F
:100F700086018312031386018316031389018312EA
:100F80000313890138300A128A1182270A128A1142
:100F90000C300A128A1182270A128A1180300A1232
:100FA0008A1182270A128A110800031000300318E0
:100FB0000130F4000A128A1154270A128A110A1207
:100FC0008A11B4270A128A110A128A1196270A1264
:100FD0008A110A128A1161270A128A11F300730812
:100FE000F4000A128A1196270A128A1174080A124A
:100FF0008A116E270A128A11E92F0A128A11002813
:00000001FF
