:060000000A128A11502FC4
:100E7C0064008001840A04060319003404063F2F21
:100E8C00472F831203138C1E4C2F4D2F472F8C1280
:100E9C001A080800F40183132030840040300A1231
:100EAC008A113E270A128A1183010A128A11D42F41
:100EBC0080308316031387002630980090308312FD
:100ECC000313980019308316031399000800F200DD
:100EDC008312031309147208860009150D30F100F2
:100EEC00FB30F000F00B782FF10B782F7D2F831255
:100EFC00031309110800F20083120313091072087E
:100F0C00860009150D30F100FB30F000F00B8C2F32
:100F1C00F10B8C2F912F8312031309110800003051
:100F2C00F0000030F10003307102E8300319700258
:100F3C00031CA12FA22FA32FB22F0130F0070318EF
:100F4C00F10A0030F10703307102E8300319700226
:100F5C00031CB12FB22FA32F0800063083160313E6
:100F6C009F008601831203138601831603138901E4
:100F7C0083120313890138300A128A1181270A124D
:100F8C008A110C300A128A1181270A128A118030B8
:100F9C000A128A1181270A128A1108000A128A1170
:100FAC005E270A128A110A128A11B3270A128A11B1
:100FBC000A128A1195270A128A110A128A114627D7
:100FCC000A128A11F3007408203E840073088313FC
:100FDC0080007408203E840000080A128A116D27D4
:100FEC000A128A110130F3007308F407E32F0A1276
:040FFC008A1100282E
:00000001FF
