:060000000A128A11802F94
:100EC40064008001840A0406031900340406632FB5
:100ED4006B2F831203138C1D702F712F6B2F8C11AA
:100EE4001308080018308316031387002530831273
:100EF400031394008316031394010800F601F70109
:100F040083132030840040300A128A1162270A12A7
:100F14008A1183010A128A11D82FF2008312031353
:100F240009147208860009150D30F100FB30F00039
:100F3400F00B9A2FF10B9A2F9F2F83120313091191
:100F44000800F200831203130910720886000915C1
:100F54000D30F100FB30F000F00BAE2FF10BAE2F93
:100F6400B32F8312031309110800063083160313E9
:100F74009F008601831203138601831603138901DC
:100F840083120313890138300A128A11A3270A1223
:100F94008A110C300A128A11A3270A128A1180308E
:100FA4000A128A11A3270A128A1108000A128A1146
:100FB40074270A128A110330F5008830F400563081
:100FC400F300F30BE32FF40BE32FF50BE32F0A12DB
:100FD4008A11B7270A128A110A128A116A270A1279
:100FE4008A11F3007308F70077080A128A118F2711
:0C0FF4000A128A11EE2F0A128A1100283E
:00000001FF
