:100000000A128A11262F00308A000408840A820707
:100010000034683465346C346C346F342034773495
:0A0020006F3472346C346434003421
:100E3C0064008001840A04060319003404061F2F81
:100E4C00F40183132030840040300A128A111E27CB
:100E5C000A128A1183010A128A11BB2F8030831661
:100E6C0003138700263098009030831203139800E8
:100E7C0019308316031399000800F000831603132E
:100E8C00981C492F4A2F5A2F83120313981F4F2F48
:100E9C00502F5A2F83160313981E552F562F5A2F47
:100EAC00700883120313990008000030F000003022
:100EBC00F10027307102103003197002031C672FE8
:100ECC00682F692F782F0130F0070318F10A0030D2
:100EDC00F10727307102103003197002031C772FB1
:100EEC00782F692F08000030F0000030F10003303B
:100EFC007102E83003197002031C852F862F872F8F
:100F0C00962F0130F0070318F10A0030F107033077
:100F1C007102E83003197002031C952F962F872F4E
:100F2C000800F300AE2F730884000A128A11032004
:100F3C000A128A110A128A1143270A128A110130E5
:100F4C00F2007208F3070A128A1179270A128A1121
:100F5C00730884000A128A1103200A128A110038BD
:100F6C00031DB92FBA2F992F08000A128A113427A2
:100F7C000A128A110A128A1179270A128A1161300F
:100F8C000A128A1143270A128A110A128A115B2744
:100F9C000A128A1162300A128A1143270A128A1124
:100FAC000A128A115B270A128A1163300A128A11FB
:100FBC0043270A128A110A128A115B270A128A1114
:100FCC0064300A128A1143270A128A110A128A11F2
:100FDC005B270A128A1101300A128A1197270A120A
:100FEC008A110A128A115B270A128A11FC2F0A1223
:040FFC008A1100282E
:00000001FF
