:100000000A128A11482F00308A000408840A8207E5
:100010000034683465346C346C346F342034773495
:0A0020006F3472346C346434003421
:100E500064008001840A0406031900340406292F63
:100E6000103083160313870020308312031394007D
:100E70008316031394010800F00070088312031313
:100E80009300422F8C1D452F462F422F8C110800B6
:100E9000F701F80183132030840040300A128A11D0
:100EA00028270A128A1183010A128A119D2F003005
:100EB000F0000030F1000030F0000030F1000330AD
:100EC0007102E83003197002031C672F682F692F25
:100ED000782F0130F0070318F10A0030F1070330D2
:100EE0007102E83003197002031C772F782F692FE5
:100EF0000800F300902F730884000A128A1103205F
:100F00000A128A110A128A113C270A128A11013028
:100F1000F2007208F3070A128A1157270A128A117F
:100F2000730884000A128A1103200A128A110038F9
:100F3000031D9B2F9C2F7B2F08000A128A1130273C
:100F40000A128A110330F6008830F5005630F4009A
:100F5000F40BA82FF50BA82FF60BA82F30300A1290
:100F60008A113C270A128A110230F6000330F5007C
:100F7000BA30F400F40BBA2FF50BBA2FF60BBA2FD8
:100F800031300A128A113C270A128A110230F60007
:100F90000330F500BA30F400F40BCC2FF50BCC2F56
:100FA000F60BCC2F32300A128A113C270A128A1112
:100FB0000230F6000330F500BA30F400F40BDE2FF7
:100FC000F50BDE2FF60BDE2F33300A128A113C2789
:100FD0000A128A110230F6000330F500BA30F4002C
:100FE000F40BF02FF50BF02FF60BF02F01300A1257
:100FF0008A1179270A128A11FC2F0A128A110028F5
:00000001FF
