:100000000A128A11122F00308A000408840A82071B
:100010000034683465346C346C346F342034773495
:0A0020006F3472346C346434003421
:100E240083010A128A11A72F8316031311141A2F90
:100E3400831203138C1D1F2F202F1A2F8C110800CF
:100E4400831603131115262F831203138C1D2B2FC6
:100E54002C2F262F8C110800F00070088312031326
:100E64009300342F8C1D372F382F342F8C1108000A
:100E740018308316031387000930930080309400E0
:100E8400383083120313940008000030F00000305F
:100E9400F10027307102103003197002031C532F24
:100EA400542F552F642F0130F0070318F10A003036
:100EB400F10727307102103003197002031C632FED
:100EC400642F552F08000030F0000030F100273067
:100ED4007102103003197002031C712F722F732FCB
:100EE400822F0130F0070318F10A0030F107273090
:100EF4007102103003197002031C812F822F732F8B
:100F04000800F3009A2F730884000A128A11032040
:100F14000A128A110A128A112E270A128A11013022
:100F2400F2007208F3070A128A1147270A128A117B
:100F3400730884000A128A1103200A128A110038E5
:100F4400031DA52FA62F852F08000A128A113A2700
:100F54000A128A110A128A1165270A128A110A12C0
:100F64008A1116270A128A110A128A1165270A128F
:100F74008A1126300A128A112E270A128A110A129D
:100F84008A1165270A128A1161300A128A112E27E2
:100F94000A128A110A128A1165270A128A1162300A
:100FA4000A128A112E270A128A110A128A11652737
:100FB4000A128A1163300A128A112E270A128A1120
:100FC4000A128A1165270A128A1101300A128A113B
:100FD40083270A128A110A128A1165270A128A11B2
:100FE4000A128A1122270A128A110A128A11652703
:0C0FF4000A128A11FC2F0A128A11002830
:00000001FF
