:060000000A128A11822F92
:100F040083010A128A118F2F013083160313810083
:100F1400063083120313810008008316031386012D
:100F24008312031386010A128A1186270A128A1170
:100F34008312031386090130F6000030F7000A1209
:100F44008A11D3270A128A119A2F0A128A110028A9
:100F54000030F4000030F500701CB12FB22FB82F10
:100F64007208F4070318F50A7308F5070130031033
:100F7400F20DF30DFF3E031DB92F01300310F10CE8
:100F8400F00CFF3E031DC02F71087004031DCB2F0E
:100F9400CC2FAE2F7508F101F1077408F001F007AA
:100FA4000800E830F0000330F1007708F301F3079C
:100FB4007608F201F2070A128A11AA270A128A1184
:100FC4007108F701F7077008F601F607F92FEA2F01
:100FD4000B1DED2FEE2FEA2F063083120313810031
:100FE4000B110130F6020030031CF703F7027708F7
:0C0FF4007604031DFE2FFF2FE92F0800DC
:00000001FF
