:100000000A128A11712F00308A000408840A8207BC
:100010000034683465346C346C346F342034773495
:0A0020006F3472346C346434003421
:100EE20083010A128A119F2FF20083120313091041
:100EF20089107208860009150D30F100FB30F000F0
:100F0200F00B812FF10B812F862F8312031309110E
:100F12000800F20083120313091489107208860074
:100F220009150D30F100FB30F000F00B962FF10B9C
:100F3200962F9B2F83120313091108000A128A119C
:100F4200D9270A128A1101300A128A11BA270A1203
:100F52008A11C0300A128A1175270A128A11643066
:100F62000A128A118A270A128A11B62F0A128A11C4
:100F72000028F400CC2F740884000A128A1103207E
:100F82000A128A110A128A118A270A128A11013058
:100F9200F3007308F407740884000A128A1103200C
:100FA2000A128A110038031DD72FD82FBC2F080030
:100FB2000630831603139F008601831203138601F2
:100FC2008316031389018312031389010E300A1257
:100FD2008A1175270A128A1101300A128A1175279D
:100FE2000A128A1138300A128A1175270A128A11D6
:0E0FF20080300A128A1175270A128A1108002F
:00000001FF
