:100000000A128A11162AFF1B0D2883137F188317E3
:100010000008840A0319FF0A080000308A00040857
:10002000840A82070034743465346D3470342034AB
:0A003000763461346C343A34003445
:1003DC0070346F3474342034763461346C343A3481
:1003EC000034F90079080A128A11B1220A128A1112
:1003FC007108F801F8077008F701F70708007E0884
:10040C008A007F08820005220A128A118000840A61
:10041C0004087D0603190034FF0A0319FE0A092A91
:10042C0083136830FD000130FE00EE30FF005F30BA
:10043C0084000A128A1109220A128A1183010A12F3
:10044C008A11C22BF1008312031309108910710851
:10045C0086000915F930F0006400F00B322A362AB8
:10046C0064008312031309110800F10083120313B3
:10047C0009148910710886000915F930F000640020
:10048C00F00B452A492A6400831203130911080052
:10049C00831203132A08F0002B08F100F2018E30AE
:1004AC00FC007C08F3000310003003180130F4004A
:1004BC000A128A112E240A128A117008831203134D
:1004CC00AA007108AB007208AC0008000230831659
:1004DC0003139F00860183120313860183160313F3
:1004EC0089018312031389010E300A128A11282202
:1004FC000A128A1101300A128A1128220A128A1150
:10050C0038300A128A1128220A128A110800A22AEB
:10051C007308FF00720884000A128A1103200A1261
:10052C008A110A128A113B220A128A110130F2072F
:10053C000318F30A0030F3077308FF0072088400F5
:10054C000A128A1103200A128A110038031DAF2ADD
:10055C00B02A8E2A0800F6000030F4000030F500B6
:10056C00083076020318BB2ABC2AE52A823083168F
:10057C0003139F007608F20002300310F20DFF3EC9
:10058C00031DC32A0310720DC138831203139F007D
:10059C001F15D02A1F19D32AD42AD02A1E08F200DC
:1005AC00F3010830FE000310F20DF30DFE0BD92AF7
:1005BC007208831603131E04F4007308F500750803
:1005CC00F101F1077408F001F007080071087004DC
:1005DC000319F12AF22A222BF5010314F50D012B34
:1005EC0001300310F00DF10DFF3E031DF72A013011
:1005FC00F4007408F507F11F042B052BF62A71087B
:10060C007302031D0B2B70087202031C0E2B0F2B95
:10061C00152B7008F2027108031CF303F30201306E
:10062C000310F10CF00CFF3E031D162B0130F502EC
:10063C00031D212B222B052B7308F101F1077208E6
:10064C00F001F00708000030FB000030FC007708D8
:10065C0076040319322B332B6B2BFD010314FD0D88
:10066C00422B01300310F60DF70DFF3E031D382B06
:10067C000130FA007A08FD07F71F452B462B372B64
:10068C0001300310FB0DFC0DFF3E031D472B7708BB
:10069C007902031D532B76087802031C562B572B1B
:1006AC005E2B7608F8027708031CF903F9027B1419
:1006BC0001300310F70CF60CFF3E031D5F2B0130CD
:1006CC00FD02031D6A2B6B2B462B7C08F701F707E9
:1006DC007B08F601F6070800FD007D080A128A1156
:1006EC00B1220A128A11710883120313AB01AB07F2
:1006FC007008AA01AA070A128A114E220A128A113C
:10070C00831203132A08B0002B08B1002C08B20086
:10071C003330AD000330AE004030AF000A128A1106
:10072C0059260A128A11831203132D08C0002E08B1
:10073C00C1002F08C2000030BD00C830BE004230DE
:10074C00BF000A128A111B270A128A118312031383
:10075C003D08F8003E08F9003F08FA000A128A1119
:10076C00BD250A128A11790883120313CE01CE0714
:10077C007808CD01CD0708000A128A116C220A12E2
:10078C008A1180300A128A1128220A128A115630D4
:10079C0084005F3083120313D2000408D3000930A5
:1007AC00D4005208840083130008D500D20A5308E1
:1007BC00840055088000D30AD40BD72B5630F20096
:1007CC000030F3000A128A118D220A128A11C030ED
:1007DC000A128A1128220A128A110130F200803082
:1007EC00F3000A128A118D220A128A1100300A12A1
:1007FC008A11F7210A128A11780883120313A101B6
:10080C00A1077708A001A0078A30D2005208A200E5
:10081C000A128A11A3240A128A1101300A128A11AF
:10082C0072230A128A11831203134E08D001D007C7
:10083C004D08CF01CF07CA30D2005208D1000A129E
:10084C008A112A250A128A11FC2B0A128A110028F5
:10085C007308031D322C392C720871047004031DAB
:10086C00382C392C402C0030F0000030F1000030D6
:10087C00F200A22C4D2C0130F5007508F307013065
:10088C000310F20CF10CF00CFF3E031D462CFE3055
:10089C007205031D522C532C412C6A2C0130F5008F
:1008AC007508F3070130F007003003180130F10729
:1008BC00003003180130F20701300310F20CF10C78
:1008CC00F00CFF3E031D632CFF307205031D6F2CD3
:1008DC00702C542C7B2C0130F30201300310F00DE2
:1008EC00F10DF20DFF3E031D742CF11F7E2C7F2C9D
:1008FC00712C7318822C832C892CFF30F0057F30DF
:10090C00F105FF30F2050310F30C7308F500F60146
:10091C00F70110300310F50DF60DF70DFF3E031D1A
:10092C00902C7508F0047608F1047708F20474082A
:10093C00031DA12CA22CF21708008312031322080A
:10094C000A128A1128220A128A11E830F6000330A2
:10095C00F700831203132108F901F9072008F801A5
:10096C00F8070A128A1129230A128A117608303ED6
:10097C000A128A113B220A128A116430F6000030E6
:10098C00F700831203132108F301F3072008F20187
:10099C00F207E830F0000330F1000A128A11EC2261
:1009AC000A128A117108F901F9077008F801F807A1
:1009BC000A128A1129230A128A117608303E0A1269
:1009CC008A113B220A128A110A30F6000030F70015
:1009DC00831203132108F301F3072008F201F20735
:1009EC006430F0000030F1000A128A11EC220A1275
:1009FC008A117108F901F9077008F801F8070A1251
:100A0C008A1129230A128A117608303E0A128A1199
:100A1C003B220A128A110A30F0000030F1008312D6
:100A2C0003132108F301F3072008F201F2070A125D
:100A3C008A11EC220A128A117008303E0A128A11AD
:100A4C003B220A128A1108008312031351080A125E
:100A5C008A1128220A128A11E830F6000330F700B6
:100A6C00831203135008F901F9074F08F801F8072E
:100A7C000A128A1129230A128A117608303E0A12A8
:100A8C008A113B220A128A116430F6000030F700FA
:100A9C00831203135008F301F3074F08F201F20716
:100AAC00E830F0000330F1000A128A11EC220A122D
:100ABC008A117108F901F9077008F801F8070A1290
:100ACC008A1129230A128A117608303E0A128A11D9
:100ADC003B220A128A112E300A128A113B220A1268
:100AEC008A110A30F6000030F70083120313500805
:100AFC00F301F3074F08F201F2076430F000003005
:100B0C00F1000A128A11EC220A128A117108F901F9
:100B1C00F9077008F801F8070A128A1129230A123A
:100B2C008A117608303E0A128A113B220A128A1167
:100B3C000A30F0000030F100831203135008F30167
:100B4C00F3074F08F201F2070A128A11EC220A127B
:100B5C008A117008303E0A128A113B220A128A113D
:100B6C0063300A128A113B220A128A110800780893
:100B7C0083120313A0007908A1007A08A2000310C5
:100B8C00210D220DA3002308A900A908031DCF2DB8
:100B9C00D02DD92D0030FB000030FA000030F900C8
:100BAC000030F800582E7808A0007908A1007A08C7
:100BBC00A20017300310A20CA10CA00CFF3E031DC9
:100BCC00E02D2008A3002308A400F917FF30F80536
:100BDC00FF30F9050030FA057808A5007908A60061
:100BEC007A08A700A8018E30A902A91FFE2DFF2D9F
:100BFC00212E2908803A8F3E0318052E062E0F2E23
:100C0C000030FB000030FA000030F9000030F80032
:100C1C00582E01300310A80CA70CA60CA50CFF3EF7
:100C2C00031D102E0130A0002008A907031D1F2E44
:100C3C00202E0F2E412E18302902031C262E272E73
:100C4C00302E0030FB000030FA000030F90000308C
:100C5C00F800582E3C2E0130A0000310A50DA60D57
:100C6C00A70DA80DA00B332E0130A902A908031D56
:100C7C00402E412E312E2408031D452E502EA50941
:100C8C00A609A709A809A50A0319A60A0319A70A00
:100C9C000319A80A2808FB002708FA002608F900FF
:100CAC002508F8000800831203133008B30031083C
:100CBC00B4003208B5000310340D350DB6003608FB
:100CCC00BB00BB08031D6B2E6C2E732E0030AD00C9
:100CDC000030AE000030AF001A2F2D08B3002E08E4
:100CEC00B4002F08B5000310340D350DB6003608CE
:100CFC00BC00BC08031D832E842E8B2E0030AD004F
:100D0C000030AE000030AF001A2F0030B8000030B9
:100D1C00B9000030BA0089303C07B3003308BB027D
:100D2C003008B3003108B4003208B500103003109D
:100D3C00B50CB40CB30CFF3E031D9D2E3308B6004E
:100D4C003608BC002D08B3002E08B4002F08B500DF
:100D5C0010300310B50CB40CB30CFF3E031DAF2EBA
:100D6C003308B6003608BC068030B3003308BC0527
:100D7C00B117FF30B005FF30B1050030B205AE172A
:100D8C00FF30AD05FF30AE050030AF051830B300B5
:100D9C003308B70001300310B80DB90DBA0DFF3E82
:100DAC00031DD12E2F083202031DE22E2E08310214
:100DBC00031DE22E2D083002031CE52EE62EF12E2B
:100DCC002D08B0022E08031C2E0FB1022F08031C95
:100DDC002F0AB202381401300310B00DB10DB20D50
:100DEC00FF3E031DF22E0130B702031DFE2EFF2E17
:100DFC00D02E3808F0003908F1003A08F2003B0810
:100E0C00B3003308F3003C08B4003408F4000A12B1
:100E1C008A112E240A128A11700883120313AD0052
:100E2C007108AE007208AF000800831203133D086E
:100E3C00C3003E08C4003F08C5000310440D450D17
:100E4C00C6004608C700C708031D2D2F2E2F352FAF
:100E5C000030BD000030BE000030BF00FF2F400846
:100E6C00C3004108C4004208C5000310440D450DE1
:100E7C00C6004608CC00CC08031D452F462F4D2F2D
:100E8C000030BD000030BE000030BF00FF2F4C080A
:100E9C007B3EC3004308C7073D08C3003E08C4009F
:100EAC003F08C50010300310C50CC40CC30CFF3E2A
:100EBC00031D592F4308C6004608CC004008C30048
:100ECC004108C4004208C50010300310C50CC40C06
:100EDC00C30CFF3E031D6B2F4308C6004608CC060F
:100EEC008030C3004308CC05BE17C117FF30C005C6
:100EFC00FF30C1050030C2050030C8000030C90009
:100F0C000030CA000730C3004308CB003D1C8F2FB4
:100F1C00902FA02F4008C807410803110318410A5D
:100F2C000319992FC907420803110318420A031920
:100F3C00A02FCA0701300310BF0CBE0CBD0CFF3E26
:100F4C00031DA12F01300310C00DC10DC20DFF3EBA
:100F5C00031DA92F0130CB02031DB52FB62F8C2FEB
:100F6C000930C3004308CB003D1CBD2FBE2FCE2F34
:100F7C004008C807410803110318410A0319C72F79
:100F8C00C907420803110318420A0319CE2FCA07D6
:100F9C0001300310BF0CBE0CBD0CFF3E031DCF2F48
:100FAC0001300310CA0CC90CC80CFF3E031DD72F0F
:100FBC000130CB02031DE32FE42FBA2F4808F000B9
:100FCC004908F1004A08F2004708C3004308F3003F
:100FDC004C08C4004408F4000A128A112E240A1288
:100FEC008A11700883120313BD007108BE007208C9
:040FFC00BF0008002A
:00000001FF
